S013000061737369676E6D656E74322E73726563A6
S11300000C9434000C9451000C9451000C94510045
S11300100C9451000C9451000C9451000C94510018
S11300200C9451000C9451000C9451000C94510008
S11300300C9451000C9451000C9469000C945100E0
S11300400C9451000C9451000C9451000C945100E8
S11300500C9451000C9451000C9451000C945100D8
S11300600C9451000C94510011241FBECFEFD8E022
S1130070DEBFCDBF11E0A0E0B1E0ECE2F4E002C0ED
S113008005900D92A830B107D9F721E0A8E0B1E0BE
S113009001C01D92A631B207E1F70E9447010C94FA
S11300A014020C940000109210011092110110928D
S11300B012011092130184B5826084BD85B58360FA
S11300C085BD89EF87BDEEE6F0E0808182608083A4
S11300D008951F920F920FB60F9211248F939F933E
S11300E0AF93BF938091100190911101A0911201DF
S11300F0B09113010196A11DB11D8093100190933D
S11301001101A0931201B0931301BF91AF919F917C
S11301108F910F900FBE0F901F9018950F931F9300
S113012080910401882301F18091050190910601D9
S1130130809314019093150195B1892B85B9809111
S1130140050190910601880F991F909306018093F1
S113015005018034910534F081E090E0909306012C
S11301608093050110920401809108019091090186
S1130170A0910A01B0910B0140910C0150910D0125
S113018060910E0170910F018C019D01041B150BF0
S1130190260B370B4091000150910101609102013F
S11301A070910301041715072607370788F0809319
S11301B00C0190930D01A0930E01B0930F0181E007
S11301C08093040195B1809114018095892385B9A8
S11301D01F910F9108950F931F9380910401882319
S11301E0F9F0809105019091060180931401909398
S11301F0150195B1892B85B980910501909106016E
S1130200959587959093060180930501029734F4A0
S113021080E490E09093060180930501109204011C
S11302208091080190910901A0910A01B0910B01FC
S113023040910C0150910D0160910E0170910F01DC
S11302408C019D01041B150B260B370B40910001FB
S11302505091010160910201709103010417150787
S11302602607370788F080930C0190930D01A09323
S11302700E01B0930F0181E08093040195B1809148
S113028014018095892385B91F910F9108950E94C7
S11302905300789484B18F6384B98AB180688AB931
S11302A084B18F7784B98BB188678BB9C1E040E0A2
S11302B050E0BA0102C0B701A601F8948091100180
S11302C090911101A0911201B0911301789480933F
S11302D0080190930901A0930A01B0930B01F894CB
S11302E0C0901001D0901101E0901201F090130120
S11302F0789489B183FD0EC046015701841A950A8A
S1130300A60AB70A24EF821621E09206A104B104DA
S113031008F07CC084FD0EC046015701841A950A7A
S1130320A60AB70A94EF891691E09906A104B104CC
S113033008F06EC021E046015701841A950AA60A06
S1130340B70A94EF891691E09906A104B10408F460
S113035020E0382F32953695377091E09327922319
S113036039F18091000190910101A0910201B091B5
S1130370030184569109A109B10980930001909366
S11303800101A0930201B093030184369105A105F4
S1130390B10508F041C084E690E0A0E0B0E08093AD
S11303A0000190930101A0930201B093030134C0B2
S11303B0829586958695837091E08927282351F14B
S11303C08091000190910101A0910201B09103017B
S11303D08C599F4FAF4FBF4F809300019093010101
S11303E0A0930201B0930301893E9340A105B10596
S11303F098F088EE93E0A0E0B0E080930001909341
S11304000101A0930201B093030106C0C0E004C03F
S1130410C1E002C06A017B01CC2319F00E948E0066
S10F04204ACF0E94EB0047CFF894FFCFB6
S10B042C64000000010100005E
S9030000FC
