S01D000072756E6E696E676C696768745F775F627574746F6E2E737265631D
S11300000C9434000C9449000C9449000C9449005D
S11300100C9449000C9449000C9449000C94490038
S11300200C9449000C9449000C9449000C94490028
S11300300C9449000C9449000C9449000C94490018
S11300400C9449000C9449000C9449000C94490008
S11300500C9449000C9449000C9449000C944900F8
S11300600C9449000C94490011241FBECFEFD8E032
S1130070DEBFCDBF11E0A0E0B1E0E2EBF0E002C0F2
S113008005900D92A030B107D9F70E9452000C944C
S113009057000C94000084B1806284B984B18078E4
S11300A084B908950E944B0080E090E00895F8948C
S10500B0FFCF7C
S9030000FC
